:020000020000fc
:0100000000ff
:0100010001fd
:0100020001fc
:0100030000fc
:0100040002f9
:0100050002f8
:0100060002f7
:0100070001f7
:0100080003f4
:0100090000f6
:01000a0002f3
:01000b0001f3
:01000c0001f2
:01000d0003ef
:01000e0003ee
:01000f0001ef
:0100100000ef
:0100110002ec
:0100120002eb
:0100130001eb
:0100140001ea
:0100150003e7
:0100160000e9
:0100170003e5
:0100180000e7
:0100190002e4
:01001a0003e2
:01001b0003e1
:01001c0001e2
:01001d0001e1
:01001e0003de
:01001f0001df
:0100200002dd
:0100210003db
:0100220003da
:0100230000dc
:0100240003d8
:0100250000da
:0100260002d7
:0100270002d6
:0100280002d5
:0100290002d4
:01002a0001d4
:01002b0001d3
:01002c0001d2
:01002d0000d2
:01002e0003ce
:01002f0002ce
:0100300002cd
:0100310001cd
:0100320002cb
:0100330002ca
:0100340001ca
:0100350002c8
:0100360002c7
:0100370003c5
:0100380000c7
:0100390003c3
:01003a0001c4
:01003b0000c4
:01003c0000c3
:01003d0000c2
:01003e0001c0
:01003f0003bd
:0100400001be
:0100410002bc
:0100420001bc
:0100430003b9
:0100440002b9
:0100450000ba
:0100460002b7
:0100470003b5
:0100480002b5
:0100490001b5
:01004a0000b5
:01004b0003b1
:01004c0002b1
:01004d0001b1
:01004e0003ae
:01004f0003ad
:0100500003ac
:0100510003ab
:0100520003aa
:0100530002aa
:0100540000ab
:0100550001a9
:0100560003a6
:0100570000a8
:0100580001a6
:0100590000a6
:01005a0002a3
:01005b0003a1
:01005c0002a1
:01005d0001a1
:01005e0001a0
:01005f0000a0
:01006000019e
:01006100019d
:01006200019c
:01006300029a
:01006400019a
:010065000199
:010066000099
:010067000395
:010068000097
:010069000393
:01006a000194
:01006b000193
:01006c000093
:01006d000191
:01006e000091
:01006f00018f
:01007000028d
:01007100008e
:01007200038a
:010073000389
:01007400008b
:010075000189
:010076000287
:010077000187
:010078000384
:010079000086
:01007a000283
:01007b000381
:01007c000281
:01007d000280
:01007e00027f
:01007f00027e
:01008000037c
:01008100037b
:01008200027b
:010083000379
:010084000378
:010085000278
:010086000178
:010087000177
:010088000275
:010089000076
:01008a000273
:01008b000173
:01008c000271
:01008d000270
:01008e000071
:01008f000070
:01009000026d
:01009100006e
:01009200006d
:01009300016b
:010094000368
:010095000169
:010096000267
:010097000365
:010098000265
:010099000363
:01009a000362
:01009b000262
:01009c000162
:01009d000260
:01009e00025f
:01009f00025e
:0100a000035c
:0100a100015d
:0100a200005d
:0100a3000359
:0100a400015a
:0100a500005a
:0100a6000257
:0100a7000355
:0100a8000255
:0100a9000056
:0100aa000055
:0100ab000252
:0100ac000350
:0100ad000052
:0100ae000150
:0100af00014f
:0100b000014e
:0100b100014d
:0100b200034a
:0100b3000349
:0100b4000249
:0100b500004a
:0100b6000148
:0100b7000345
:0100b8000047
:0100b9000145
:0100ba000045
:0100bb000341
:0100bc000340
:0100bd000141
:0100be00023f
:0100bf00033d
:0100c000023d
:0100c100023c
:0100c200033a
:0100c300023a
:0100c400003b
:0100c5000139
:0100c6000336
:0100c7000335
:0100c8000136
:0100c9000135
:0100ca000035
:0100cb000331
:0100cc000330
:0100cd000230
:0100ce000031
:0100cf00012f
:0100d000032c
:0100d100032b
:0100d200012c
:0100d300022a
:0100d4000328
:0100d5000327
:0100d6000128
:0100d7000325
:0100d8000126
:0100d9000125
:0100da000025
:0100db000123
:0100dc000320
:0100dd000022
:0100de00021f
:0100df00021e
:0100e000011e
:0100e100011d
:0100e200011c
:0100e300021a
:0100e400001b
:0100e5000218
:0100e6000316
:0100e7000018
:0100e8000116
:0100e9000313
:0100ea000114
:0100eb000014
:0100ec000013
:0100ed00030f
:0100ee000110
:0100ef000010
:0100f000010e
:0100f100020c
:0100f200020b
:0100f300020a
:0100f400010a
:0100f5000307
:0100f6000108
:0100f7000008
:0100f8000007
:0100f9000303
:0100fa000005
:0100fb000103
:0100fc000102
:0100fd000101
:0100fe000001
:0100ff000000
:00000001FF
